{
  "contractName": "SimpleVoting",
  "abi": [
    {
      "constant": true,
      "inputs": [
        {
          "name": "",
          "type": "uint256"
        }
      ],
      "name": "proposals",
      "outputs": [
        {
          "name": "description",
          "type": "string"
        },
        {
          "name": "voteCount",
          "type": "uint256"
        }
      ],
      "payable": false,
      "stateMutability": "view",
      "type": "function"
    },
    {
      "constant": true,
      "inputs": [],
      "name": "workflowStatus",
      "outputs": [
        {
          "name": "",
          "type": "uint8"
        }
      ],
      "payable": false,
      "stateMutability": "view",
      "type": "function"
    },
    {
      "constant": true,
      "inputs": [
        {
          "name": "",
          "type": "address"
        }
      ],
      "name": "voters",
      "outputs": [
        {
          "name": "isRegistered",
          "type": "bool"
        },
        {
          "name": "hasVoted",
          "type": "bool"
        },
        {
          "name": "votedProposalId",
          "type": "uint256"
        }
      ],
      "payable": false,
      "stateMutability": "view",
      "type": "function"
    },
    {
      "constant": true,
      "inputs": [],
      "name": "administrator",
      "outputs": [
        {
          "name": "",
          "type": "address"
        }
      ],
      "payable": false,
      "stateMutability": "view",
      "type": "function"
    },
    {
      "inputs": [],
      "payable": false,
      "stateMutability": "nonpayable",
      "type": "constructor"
    },
    {
      "anonymous": false,
      "inputs": [
        {
          "indexed": false,
          "name": "previousStatus",
          "type": "uint8"
        },
        {
          "indexed": false,
          "name": "newStatus",
          "type": "uint8"
        }
      ],
      "name": "WorkflowStatusChange",
      "type": "event"
    },
    {
      "constant": false,
      "inputs": [
        {
          "name": "_voterAddress",
          "type": "address"
        }
      ],
      "name": "registerVoter",
      "outputs": [],
      "payable": false,
      "stateMutability": "nonpayable",
      "type": "function"
    },
    {
      "constant": false,
      "inputs": [],
      "name": "startProposalsRegistration",
      "outputs": [],
      "payable": false,
      "stateMutability": "nonpayable",
      "type": "function"
    },
    {
      "constant": false,
      "inputs": [],
      "name": "endProposalsRegistration",
      "outputs": [],
      "payable": false,
      "stateMutability": "nonpayable",
      "type": "function"
    },
    {
      "constant": false,
      "inputs": [
        {
          "name": "proposalDescription",
          "type": "string"
        }
      ],
      "name": "registerProposal",
      "outputs": [],
      "payable": false,
      "stateMutability": "nonpayable",
      "type": "function"
    },
    {
      "constant": true,
      "inputs": [],
      "name": "getProposalsNumber",
      "outputs": [
        {
          "name": "",
          "type": "uint256"
        }
      ],
      "payable": false,
      "stateMutability": "view",
      "type": "function"
    },
    {
      "constant": true,
      "inputs": [
        {
          "name": "index",
          "type": "uint256"
        }
      ],
      "name": "getProposalDescription",
      "outputs": [
        {
          "name": "",
          "type": "string"
        }
      ],
      "payable": false,
      "stateMutability": "view",
      "type": "function"
    },
    {
      "constant": false,
      "inputs": [],
      "name": "startVotingSession",
      "outputs": [],
      "payable": false,
      "stateMutability": "nonpayable",
      "type": "function"
    },
    {
      "constant": false,
      "inputs": [],
      "name": "endVotingSession",
      "outputs": [],
      "payable": false,
      "stateMutability": "nonpayable",
      "type": "function"
    },
    {
      "constant": false,
      "inputs": [
        {
          "name": "proposalId",
          "type": "uint256"
        }
      ],
      "name": "vote",
      "outputs": [],
      "payable": false,
      "stateMutability": "nonpayable",
      "type": "function"
    },
    {
      "constant": false,
      "inputs": [],
      "name": "tallyVotes",
      "outputs": [],
      "payable": false,
      "stateMutability": "nonpayable",
      "type": "function"
    },
    {
      "constant": true,
      "inputs": [],
      "name": "getWinningProposalId",
      "outputs": [
        {
          "name": "",
          "type": "uint256"
        }
      ],
      "payable": false,
      "stateMutability": "view",
      "type": "function"
    },
    {
      "constant": true,
      "inputs": [],
      "name": "getWinningProposalDescription",
      "outputs": [
        {
          "name": "",
          "type": "string"
        }
      ],
      "payable": false,
      "stateMutability": "view",
      "type": "function"
    },
    {
      "constant": true,
      "inputs": [],
      "name": "getWinningProposaVoteCounts",
      "outputs": [
        {
          "name": "",
          "type": "uint256"
        }
      ],
      "payable": false,
      "stateMutability": "view",
      "type": "function"
    },
    {
      "constant": true,
      "inputs": [
        {
          "name": "_voterAddress",
          "type": "address"
        }
      ],
      "name": "isRegisteredVoter",
      "outputs": [
        {
          "name": "",
          "type": "bool"
        }
      ],
      "payable": false,
      "stateMutability": "view",
      "type": "function"
    },
    {
      "constant": true,
      "inputs": [
        {
          "name": "_address",
          "type": "address"
        }
      ],
      "name": "isAdministrator",
      "outputs": [
        {
          "name": "",
          "type": "bool"
        }
      ],
      "payable": false,
      "stateMutability": "view",
      "type": "function"
    },
    {
      "constant": true,
      "inputs": [],
      "name": "getWorkflowStatus",
      "outputs": [
        {
          "name": "",
          "type": "uint8"
        }
      ],
      "payable": false,
      "stateMutability": "view",
      "type": "function"
    }
  ],
  "bytecode": "0x608060405234801561001057600080fd5b5033600060016101000a81548173ffffffffffffffffffffffffffffffffffffffff021916908373ffffffffffffffffffffffffffffffffffffffff16021790555060008060006101000a81548160ff0219169083600581111561007057fe5b02179055506122b5806100846000396000f300608060405260043610610112576000357c0100000000000000000000000000000000000000000000000000000000900463ffffffff1680630121b93f14610117578063013cf08b146101445780630a2eb301146101f15780632016e3c11461024c578063229acb17146102775780632f95355b1461031d578063378a21781461038657806337d05ddc1461039d57806338db6dd31461042d57806341b1b046146104705780636c2974451461049b578063a1edffa2146104b2578063a3ec138d146104eb578063a7bfab1614610558578063da36cffe1461056f578063e09b8c79146105ca578063e81e977b146105e1578063ee74c6781461060c578063f53d0a8e14610623578063f75d64a61461067a575b600080fd5b34801561012357600080fd5b50610142600480360381019080803590602001909291905050506106b3565b005b34801561015057600080fd5b5061016f600480360381019080803590602001909291905050506109f7565b6040518080602001838152602001828103825284818151815260200191508051906020019080838360005b838110156101b557808201518184015260208101905061019a565b50505050905090810190601f1680156101e25780820380516001836020036101000a031916815260200191505b50935050505060405180910390f35b3480156101fd57600080fd5b50610232600480360381019080803573ffffffffffffffffffffffffffffffffffffffff169060200190929190505050610ac2565b604051808215151515815260200191505060405180910390f35b34801561025857600080fd5b50610261610b1b565b6040518082815260200191505060405180910390f35b34801561028357600080fd5b506102a260048036038101908080359060200190929190505050610c06565b6040518080602001828103825283818151815260200191508051906020019080838360005b838110156102e25780820151818401526020810190506102c7565b50505050905090810190601f16801561030f5780820380516001836020036101000a031916815260200191505b509250505060405180910390f35b34801561032957600080fd5b50610384600480360381019080803590602001908201803590602001908080601f0160208091040260200160405190810160405280939291908181526020018383808284378201915050505050509192919290505050610cc8565b005b34801561039257600080fd5b5061039b610ee4565b005b3480156103a957600080fd5b506103b26111ca565b6040518080602001828103825283818151815260200191508051906020019080838360005b838110156103f25780820151818401526020810190506103d7565b50505050905090810190601f16801561041f5780820380516001836020036101000a031916815260200191505b509250505060405180910390f35b34801561043957600080fd5b5061046e600480360381019080803573ffffffffffffffffffffffffffffffffffffffff16906020019092919050505061134d565b005b34801561047c57600080fd5b506104856116e5565b6040518082815260200191505060405180910390f35b3480156104a757600080fd5b506104b06116f2565b005b3480156104be57600080fd5b506104c761192e565b604051808260058111156104d757fe5b60ff16815260200191505060405180910390f35b3480156104f757600080fd5b5061052c600480360381019080803573ffffffffffffffffffffffffffffffffffffffff169060200190929190505050611940565b604051808415151515815260200183151515158152602001828152602001935050505060405180910390f35b34801561056457600080fd5b5061056d611984565b005b34801561057b57600080fd5b506105b0600480360381019080803573ffffffffffffffffffffffffffffffffffffffff169060200190929190505050611bc0565b604051808215151515815260200191505060405180910390f35b3480156105d657600080fd5b506105df611c19565b005b3480156105ed57600080fd5b506105f6611e7b565b6040518082815260200191505060405180910390f35b34801561061857600080fd5b50610621611f46565b005b34801561062f57600080fd5b506106386121a8565b604051808273ffffffffffffffffffffffffffffffffffffffff1673ffffffffffffffffffffffffffffffffffffffff16815260200191505060405180910390f35b34801561068657600080fd5b5061068f6121ce565b6040518082600581111561069f57fe5b60ff16815260200191505060405180910390f35b600160003373ffffffffffffffffffffffffffffffffffffffff1673ffffffffffffffffffffffffffffffffffffffff16815260200190815260200160002060000160009054906101000a900460ff16151561079d576040517f08c379a00000000000000000000000000000000000000000000000000000000081526004018080602001828103825260368152602001807f7468652063616c6c6572206f6620746869732066756e6374696f6e206d75737481526020017f2062652061207265676973746572656420766f7465720000000000000000000081525060400191505060405180910390fd5b600360058111156107aa57fe5b6000809054906101000a900460ff1660058111156107c457fe5b14151561085f576040517f08c379a000000000000000000000000000000000000000000000000000000000815260040180806020018281038252603a8152602001807f746869732066756e6374696f6e2063616e2062652063616c6c6564206f6e6c7981526020017f20647572696e672074686520766f74696e672073657373696f6e00000000000081525060400191505060405180910390fd5b600160003373ffffffffffffffffffffffffffffffffffffffff1673ffffffffffffffffffffffffffffffffffffffff16815260200190815260200160002060000160019054906101000a900460ff16151515610924576040517f08c379a000000000000000000000000000000000000000000000000000000000815260040180806020018281038252601c8152602001807f7468652063616c6c65722068617320616c726561647920766f7465640000000081525060200191505060405180910390fd5b60018060003373ffffffffffffffffffffffffffffffffffffffff1673ffffffffffffffffffffffffffffffffffffffff16815260200190815260200160002060000160016101000a81548160ff02191690831515021790555080600160003373ffffffffffffffffffffffffffffffffffffffff1673ffffffffffffffffffffffffffffffffffffffff1681526020019081526020016000206001018190555060016002828154811015156109d657fe5b90600052602060002090600202016001016000828254019250508190555050565b600281815481101515610a0657fe5b9060005260206000209060020201600091509050806000018054600181600116156101000203166002900480601f016020809104026020016040519081016040528092919081815260200182805460018160011615610100020316600290048015610ab25780601f10610a8757610100808354040283529160200191610ab2565b820191906000526020600020905b815481529060010190602001808311610a9557829003601f168201915b5050505050908060010154905082565b60008060019054906101000a900473ffffffffffffffffffffffffffffffffffffffff1673ffffffffffffffffffffffffffffffffffffffff168273ffffffffffffffffffffffffffffffffffffffff16149050919050565b6000600580811115610b2957fe5b6000809054906101000a900460ff166005811115610b4357fe5b141515610bde576040517f08c379a000000000000000000000000000000000000000000000000000000000815260040180806020018281038252603e8152602001807f746869732066756e6374696f6e2063616e2062652063616c6c6564206f6e6c7981526020017f20616674657220766f7465732068617665206265656e2074616c6c696564000081525060400191505060405180910390fd5b6002600354815481101515610bef57fe5b906000526020600020906002020160010154905090565b6060600282815481101515610c1757fe5b90600052602060002090600202016000018054600181600116156101000203166002900480601f016020809104026020016040519081016040528092919081815260200182805460018160011615610100020316600290048015610cbc5780601f10610c9157610100808354040283529160200191610cbc565b820191906000526020600020905b815481529060010190602001808311610c9f57829003601f168201915b50505050509050919050565b600160003373ffffffffffffffffffffffffffffffffffffffff1673ffffffffffffffffffffffffffffffffffffffff16815260200190815260200160002060000160009054906101000a900460ff161515610db2576040517f08c379a00000000000000000000000000000000000000000000000000000000081526004018080602001828103825260368152602001807f7468652063616c6c6572206f6620746869732066756e6374696f6e206d75737481526020017f2062652061207265676973746572656420766f7465720000000000000000000081525060400191505060405180910390fd5b60016005811115610dbf57fe5b6000809054906101000a900460ff166005811115610dd957fe5b141515610e74576040517f08c379a000000000000000000000000000000000000000000000000000000000815260040180806020018281038252603e8152602001807f746869732066756e6374696f6e2063616e2062652063616c6c6564206f6e6c7981526020017f20647572696e672070726f706f73616c7320726567697374726174696f6e000081525060400191505060405180910390fd5b600260408051908101604052808381526020016000815250908060018154018082558091505090600182039060005260206000209060020201600090919290919091506000820151816000019080519060200190610ed39291906121e4565b506020820151816001015550505050565b60008060008060019054906101000a900473ffffffffffffffffffffffffffffffffffffffff1673ffffffffffffffffffffffffffffffffffffffff163373ffffffffffffffffffffffffffffffffffffffff16141515610fd3576040517f08c379a00000000000000000000000000000000000000000000000000000000081526004018080602001828103825260358152602001807f7468652063616c6c6572206f6620746869732066756e6374696f6e206d75737481526020017f206265207468652061646d696e6973747261746f72000000000000000000000081525060400191505060405180910390fd5b60046005811115610fe057fe5b6000809054906101000a900460ff166005811115610ffa57fe5b1415156110bb576040517f08c379a00000000000000000000000000000000000000000000000000000000081526004018080602001828103825260438152602001807f746869732066756e6374696f6e2063616e2062652063616c6c6564206f6e6c7981526020017f2061667465722074686520766f74696e672073657373696f6e2068617320656e81526020017f646564000000000000000000000000000000000000000000000000000000000081525060600191505060405180910390fd5b6000925060009150600090505b60028054905081101561113157826002828154811015156110e557fe5b90600052602060002090600202016001015411156111245760028181548110151561110c57fe5b90600052602060002090600202016001015492508091505b80806001019150506110c8565b8160038190555060056000806101000a81548160ff0219169083600581111561115657fe5b02179055507f0a97a4ee45751e2abf3e4fc8946939630b11b371ea8ae39ccdc3056e98f5cc3f60046000809054906101000a900460ff166040518083600581111561119d57fe5b60ff1681526020018260058111156111b157fe5b60ff1681526020019250505060405180910390a1505050565b60606005808111156111d857fe5b6000809054906101000a900460ff1660058111156111f257fe5b14151561128d576040517f08c379a000000000000000000000000000000000000000000000000000000000815260040180806020018281038252603e8152602001807f746869732066756e6374696f6e2063616e2062652063616c6c6564206f6e6c7981526020017f20616674657220766f7465732068617665206265656e2074616c6c696564000081525060400191505060405180910390fd5b600260035481548110151561129e57fe5b90600052602060002090600202016000018054600181600116156101000203166002900480601f0160208091040260200160405190810160405280929190818152602001828054600181600116156101000203166002900480156113435780601f1061131857610100808354040283529160200191611343565b820191906000526020600020905b81548152906001019060200180831161132657829003601f168201915b5050505050905090565b600060019054906101000a900473ffffffffffffffffffffffffffffffffffffffff1673ffffffffffffffffffffffffffffffffffffffff163373ffffffffffffffffffffffffffffffffffffffff16141515611438576040517f08c379a00000000000000000000000000000000000000000000000000000000081526004018080602001828103825260358152602001807f7468652063616c6c6572206f6620746869732066756e6374696f6e206d75737481526020017f206265207468652061646d696e6973747261746f72000000000000000000000081525060400191505060405180910390fd5b6000600581111561144557fe5b6000809054906101000a900460ff16600581111561145f57fe5b141515611520576040517f08c379a000000000000000000000000000000000000000000000000000000000815260040180806020018281038252604a8152602001807f746869732066756e6374696f6e2063616e2062652063616c6c6564206f6e6c7981526020017f206265666f72652070726f706f73616c7320726567697374726174696f6e206881526020017f617320737461727465640000000000000000000000000000000000000000000081525060600191505060405180910390fd5b600160008273ffffffffffffffffffffffffffffffffffffffff1673ffffffffffffffffffffffffffffffffffffffff16815260200190815260200160002060000160009054906101000a900460ff161515156115e5576040517f08c379a000000000000000000000000000000000000000000000000000000000815260040180806020018281038252601f8152602001807f74686520766f74657220697320616c726561647920726567697374657265640081525060200191505060405180910390fd5b60018060008373ffffffffffffffffffffffffffffffffffffffff1673ffffffffffffffffffffffffffffffffffffffff16815260200190815260200160002060000160006101000a81548160ff0219169083151502179055506000600160008373ffffffffffffffffffffffffffffffffffffffff1673ffffffffffffffffffffffffffffffffffffffff16815260200190815260200160002060000160016101000a81548160ff0219169083151502179055506000600160008373ffffffffffffffffffffffffffffffffffffffff1673ffffffffffffffffffffffffffffffffffffffff1681526020019081526020016000206001018190555050565b6000600280549050905090565b600060019054906101000a900473ffffffffffffffffffffffffffffffffffffffff1673ffffffffffffffffffffffffffffffffffffffff163373ffffffffffffffffffffffffffffffffffffffff161415156117dd576040517f08c379a00000000000000000000000000000000000000000000000000000000081526004018080602001828103825260358152602001807f7468652063616c6c6572206f6620746869732066756e6374696f6e206d75737481526020017f206265207468652061646d696e6973747261746f72000000000000000000000081525060400191505060405180910390fd5b600160058111156117ea57fe5b6000809054906101000a900460ff16600581111561180457fe5b14151561189f576040517f08c379a000000000000000000000000000000000000000000000000000000000815260040180806020018281038252603e8152602001807f746869732066756e6374696f6e2063616e2062652063616c6c6564206f6e6c7981526020017f20647572696e672070726f706f73616c7320726567697374726174696f6e000081525060400191505060405180910390fd5b60026000806101000a81548160ff021916908360058111156118bd57fe5b02179055507f0a97a4ee45751e2abf3e4fc8946939630b11b371ea8ae39ccdc3056e98f5cc3f60016000809054906101000a900460ff166040518083600581111561190457fe5b60ff16815260200182600581111561191857fe5b60ff1681526020019250505060405180910390a1565b6000809054906101000a900460ff1681565b60016020528060005260406000206000915090508060000160009054906101000a900460ff16908060000160019054906101000a900460ff16908060010154905083565b600060019054906101000a900473ffffffffffffffffffffffffffffffffffffffff1673ffffffffffffffffffffffffffffffffffffffff163373ffffffffffffffffffffffffffffffffffffffff16141515611a6f576040517f08c379a00000000000000000000000000000000000000000000000000000000081526004018080602001828103825260358152602001807f7468652063616c6c6572206f6620746869732066756e6374696f6e206d75737481526020017f206265207468652061646d696e6973747261746f72000000000000000000000081525060400191505060405180910390fd5b60036005811115611a7c57fe5b6000809054906101000a900460ff166005811115611a9657fe5b141515611b31576040517f08c379a000000000000000000000000000000000000000000000000000000000815260040180806020018281038252603a8152602001807f746869732066756e6374696f6e2063616e2062652063616c6c6564206f6e6c7981526020017f20647572696e672074686520766f74696e672073657373696f6e00000000000081525060400191505060405180910390fd5b60046000806101000a81548160ff02191690836005811115611b4f57fe5b02179055507f0a97a4ee45751e2abf3e4fc8946939630b11b371ea8ae39ccdc3056e98f5cc3f60036000809054906101000a900460ff1660405180836005811115611b9657fe5b60ff168152602001826005811115611baa57fe5b60ff1681526020019250505060405180910390a1565b6000600160008373ffffffffffffffffffffffffffffffffffffffff1673ffffffffffffffffffffffffffffffffffffffff16815260200190815260200160002060000160009054906101000a900460ff169050919050565b600060019054906101000a900473ffffffffffffffffffffffffffffffffffffffff1673ffffffffffffffffffffffffffffffffffffffff163373ffffffffffffffffffffffffffffffffffffffff16141515611d04576040517f08c379a00000000000000000000000000000000000000000000000000000000081526004018080602001828103825260358152602001807f7468652063616c6c6572206f6620746869732066756e6374696f6e206d75737481526020017f206265207468652061646d696e6973747261746f72000000000000000000000081525060400191505060405180910390fd5b60006005811115611d1157fe5b6000809054906101000a900460ff166005811115611d2b57fe5b141515611dec576040517f08c379a000000000000000000000000000000000000000000000000000000000815260040180806020018281038252604a8152602001807f746869732066756e6374696f6e2063616e2062652063616c6c6564206f6e6c7981526020017f206265666f72652070726f706f73616c7320726567697374726174696f6e206881526020017f617320737461727465640000000000000000000000000000000000000000000081525060600191505060405180910390fd5b60016000806101000a81548160ff02191690836005811115611e0a57fe5b02179055507f0a97a4ee45751e2abf3e4fc8946939630b11b371ea8ae39ccdc3056e98f5cc3f60008060009054906101000a900460ff1660405180836005811115611e5157fe5b60ff168152602001826005811115611e6557fe5b60ff1681526020019250505060405180910390a1565b6000600580811115611e8957fe5b6000809054906101000a900460ff166005811115611ea357fe5b141515611f3e576040517f08c379a000000000000000000000000000000000000000000000000000000000815260040180806020018281038252603e8152602001807f746869732066756e6374696f6e2063616e2062652063616c6c6564206f6e6c7981526020017f20616674657220766f7465732068617665206265656e2074616c6c696564000081525060400191505060405180910390fd5b600354905090565b600060019054906101000a900473ffffffffffffffffffffffffffffffffffffffff1673ffffffffffffffffffffffffffffffffffffffff163373ffffffffffffffffffffffffffffffffffffffff16141515612031576040517f08c379a00000000000000000000000000000000000000000000000000000000081526004018080602001828103825260358152602001807f7468652063616c6c6572206f6620746869732066756e6374696f6e206d75737481526020017f206265207468652061646d696e6973747261746f72000000000000000000000081525060400191505060405180910390fd5b6002600581111561203e57fe5b6000809054906101000a900460ff16600581111561205857fe5b141515612119576040517f08c379a00000000000000000000000000000000000000000000000000000000081526004018080602001828103825260478152602001807f746869732066756e6374696f6e2063616e2062652063616c6c6564206f6e6c7981526020017f2061667465722070726f706f73616c7320726567697374726174696f6e20686181526020017f7320656e6465640000000000000000000000000000000000000000000000000081525060600191505060405180910390fd5b60036000806101000a81548160ff0219169083600581111561213757fe5b02179055507f0a97a4ee45751e2abf3e4fc8946939630b11b371ea8ae39ccdc3056e98f5cc3f60026000809054906101000a900460ff166040518083600581111561217e57fe5b60ff16815260200182600581111561219257fe5b60ff1681526020019250505060405180910390a1565b600060019054906101000a900473ffffffffffffffffffffffffffffffffffffffff1681565b60008060009054906101000a900460ff16905090565b828054600181600116156101000203166002900490600052602060002090601f016020900481019282601f1061222557805160ff1916838001178555612253565b82800160010185558215612253579182015b82811115612252578251825591602001919060010190612237565b5b5090506122609190612264565b5090565b61228691905b8082111561228257600081600090555060010161226a565b5090565b905600a165627a7a72305820baab2b82cd19c34503068397eb690dd79d4676c564324a56cf9941d7c50504670029",
  "source": "pragma solidity ^0.4.22;\r\n\r\ncontract SimpleVoting {\r\n    \r\n    struct Voter {\r\n        bool isRegistered;\r\n        bool hasVoted;  \r\n        uint votedProposalId;   \r\n    }\r\n    \r\n    struct Proposal {\r\n        string description;   \r\n        uint voteCount; \r\n    }\r\n    \r\n    enum WorkflowStatus {\r\n        RegisteringVoters, \r\n        ProposalsRegistrationStarted,\r\n        ProposalsRegistrationEnded,\r\n        VotingSessionStarted,\r\n        VotingSessionEnded,\r\n        VotesTallied\r\n    }\r\n    \r\n    WorkflowStatus public workflowStatus;\r\n    address public administrator;\r\n    mapping(address => Voter) public voters;\r\n    Proposal[] public proposals;\r\n    uint private winningProposalId;\r\n    \r\n    modifier onlyAdministrator() {\r\n       require(msg.sender == administrator, \"the caller of this function must be the administrator\");\r\n       _;\r\n    }\r\n    \r\n    modifier onlyRegisteredVoter() {\r\n        require(voters[msg.sender].isRegistered, \r\n           \"the caller of this function must be a registered voter\");\r\n       _;\r\n    }\r\n    \r\n    modifier onlyDuringVotersRegistration() {\r\n        require(workflowStatus == WorkflowStatus.RegisteringVoters, \r\n           \"this function can be called only before proposals registration has started\");\r\n       _;\r\n    }\r\n    \r\n    modifier onlyDuringProposalsRegistration() {\r\n        require(workflowStatus == WorkflowStatus.ProposalsRegistrationStarted, \r\n           \"this function can be called only during proposals registration\");\r\n       _;\r\n    }\r\n    \r\n    modifier onlyAfterProposalsRegistration() {\r\n        require(workflowStatus == WorkflowStatus.ProposalsRegistrationEnded,  \r\n           \"this function can be called only after proposals registration has ended\");\r\n       _;\r\n    }\r\n    \r\n    modifier onlyDuringVotingSession() {\r\n        require(workflowStatus == WorkflowStatus.VotingSessionStarted, \r\n           \"this function can be called only during the voting session\");\r\n       _;\r\n    }\r\n    \r\n    modifier onlyAfterVotingSession() {\r\n        require(workflowStatus == WorkflowStatus.VotingSessionEnded,  \r\n           \"this function can be called only after the voting session has ended\");\r\n       _;\r\n    }\r\n    \r\n    modifier onlyAfterVotesTallied() {\r\n        require(workflowStatus == WorkflowStatus.VotesTallied,  \r\n           \"this function can be called only after votes have been tallied\");\r\n       _;\r\n    }\r\n    \r\n    event WorkflowStatusChange (\r\n        WorkflowStatus previousStatus,\r\n        WorkflowStatus newStatus\r\n    );\r\n        \r\n    constructor() public {\r\n        administrator = msg.sender;\r\n        workflowStatus = WorkflowStatus.RegisteringVoters;\r\n    }\r\n    \r\n    function registerVoter(address _voterAddress) \r\n\t    public onlyAdministrator onlyDuringVotersRegistration {\r\n        \r\n        require(!voters[_voterAddress].isRegistered, \"the voter is already registered\");\r\n        \r\n        voters[_voterAddress].isRegistered = true;\r\n        voters[_voterAddress].hasVoted = false;\r\n        voters[_voterAddress].votedProposalId = 0;\r\n    }\r\n    \r\n    function startProposalsRegistration() \r\n        public onlyAdministrator onlyDuringVotersRegistration {\r\n        workflowStatus = WorkflowStatus.ProposalsRegistrationStarted;\r\n        \r\n        emit WorkflowStatusChange(\r\n            WorkflowStatus.RegisteringVoters, workflowStatus);\t\t\r\n    }\r\n    \r\n    function endProposalsRegistration() \r\n        public onlyAdministrator onlyDuringProposalsRegistration {\r\n        workflowStatus = WorkflowStatus.ProposalsRegistrationEnded;\r\n\t\t        \r\n        emit WorkflowStatusChange(\r\n            WorkflowStatus.ProposalsRegistrationStarted, workflowStatus);\r\n    }\r\n    \r\n    function registerProposal(string proposalDescription) \r\n        public onlyRegisteredVoter onlyDuringProposalsRegistration {\r\n        proposals.push(Proposal({\r\n            description: proposalDescription,\r\n            voteCount: 0\r\n        }));\r\n    }\r\n    \r\n\tfunction getProposalsNumber() public view\r\n\t    returns (uint) {\r\n\t    return proposals.length;\r\n\t}\r\n\t\r\n\tfunction getProposalDescription(uint index) public view \r\n\t    returns (string) {\r\n\t    return proposals[index].description;\r\n\t}    \r\n\r\n    function startVotingSession() \r\n        public onlyAdministrator onlyAfterProposalsRegistration {\r\n        workflowStatus = WorkflowStatus.VotingSessionStarted;\r\n        \r\n        emit WorkflowStatusChange(\r\n            WorkflowStatus.ProposalsRegistrationEnded, workflowStatus);\t\t\r\n    }\r\n    \r\n    function endVotingSession() \r\n        public onlyAdministrator onlyDuringVotingSession {\r\n        workflowStatus = WorkflowStatus.VotingSessionEnded;\r\n        \r\n        emit WorkflowStatusChange(\r\n            WorkflowStatus.VotingSessionStarted, workflowStatus); \t\t\r\n    }\r\n    \r\n    function vote(uint proposalId) onlyRegisteredVoter onlyDuringVotingSession public {\r\n        require(!voters[msg.sender].hasVoted, \"the caller has already voted\");\r\n        \r\n        voters[msg.sender].hasVoted = true;\r\n        voters[msg.sender].votedProposalId = proposalId;\r\n        \r\n        proposals[proposalId].voteCount += 1;\r\n    }\r\n    \r\n    function tallyVotes() onlyAdministrator onlyAfterVotingSession public {\r\n        uint winningVoteCount = 0;\r\n        uint winningProposalIndex = 0;\r\n        \r\n        for (uint i = 0; i < proposals.length; i++) {\r\n            if (proposals[i].voteCount > winningVoteCount) {\r\n                winningVoteCount = proposals[i].voteCount;\r\n                winningProposalIndex = i;\r\n            }\r\n        }\r\n        \r\n        winningProposalId = winningProposalIndex;\r\n        workflowStatus = WorkflowStatus.VotesTallied;\r\n        \r\n        emit WorkflowStatusChange(\r\n            WorkflowStatus.VotingSessionEnded, workflowStatus); \t\t\r\n    }\r\n    \r\n    function getWinningProposalId() onlyAfterVotesTallied public view\r\n       returns (uint) {\r\n        return winningProposalId;\r\n    }\r\n    \r\n    function getWinningProposalDescription() onlyAfterVotesTallied public view\r\n       returns (string) {\r\n        return proposals[winningProposalId].description;\r\n    }  \r\n    \r\n    function getWinningProposaVoteCounts() onlyAfterVotesTallied public view\r\n       returns (uint) {\r\n        return proposals[winningProposalId].voteCount;\r\n    }   \r\n    \r\n    function isRegisteredVoter(address _voterAddress) public view\r\n\t   returns (bool) {\r\n\t   return voters[_voterAddress].isRegistered;\r\n\t}\r\n\t\r\n\tfunction isAdministrator(address _address) public view \r\n\t    returns (bool) {\r\n\t    return _address == administrator;\r\n\t}\t\r\n\t\r\n\tfunction getWorkflowStatus() public view\r\n\t    returns (WorkflowStatus) {\r\n\t    return workflowStatus;       \r\n\t}\r\n}",
  "sourcePath": "C:\\Ethereum\\truffle\\SimpleVoting_Ropsten\\contracts\\SimpleVoting.sol",
  "compiler": {
    "name": "solc",
    "version": "0.4.23+commit.124ca40d.Emscripten.clang"
  },
  "schemaVersion": "2.0.0",
  "updatedAt": "2018-05-21T20:07:11.023Z"
}